S00D0000534C4156452E737265639C
S11300000C942A000C943C000C943C000C943C008E
S11300100C943C000C943C000C943C000C943C006C
S11300200C943C000C943C000C943C000C943C005C
S11300300C943E010C943C000C943C000C943C0049
S11300400C943C000C943C000C943C000C943C003C
S11300500C943C0011241FBECFE5D8E0DEBFCDBF19
S113006020E0A0E6B0E001C01D92A136B207E1F79E
S11300700E9437010C94C0010C9400004423D9F170
S1130080413009F06BC0813091F028F08230D9F012
S1130090833029F108952AB381E090E002C0880FEB
S11300A0991F6A95E2F7809582238ABB089527B346
S11300B081E090E002C0880F991F6A95E2F780956D
S11300C0822387BB089524B381E090E002C0880FA7
S11300D0991F6A95E2F78095822384BB089521B322
S11300E081E090E002C0880F991F6A95E2F780953D
S11300F0822381BB0895813089F028F08230C9F0D1
S1130100833011F108952AB381E090E002C0880F92
S1130110991F6A95E2F7822B8ABB089527B381E081
S113012090E002C0880F991F6A95E2F7822B87BB83
S1130130089524B381E090E002C0880F991F6A9566
S1130140E2F7822B84BB089521B381E090E002C0E2
S1130150880F991F6A95E2F7822B81BB0895442387
S113016019F04130C9F10895813091F028F08230BE
S1130170D9F0833029F108952BB381E090E002C0D7
S1130180880F991F6A95E2F7809582238BBB0895A7
S113019028B381E090E002C0880F991F6A95E2F7C6
S11301A08095822388BB089525B381E090E002C046
S11301B0880F991F6A95E2F78095822385BB08957D
S11301C022B381E090E002C0880F991F6A95E2F79C
S11301D08095822382BB0895813089F028F0823093
S11301E0C9F0833011F108952BB381E090E002C08F
S11301F0880F991F6A95E2F7822B8BBB089528B369
S113020081E090E002C0880F991F6A95E2F7822B83
S113021088BB089525B381E090E002C0880F991F40
S11302206A95E2F7822B85BB089522B381E090E0C2
S113023002C0880F991F6A95E2F7822B82BB08954A
S113024040E060E082E00E943E0040E061E082E045
S11302500E943E00089541E0682F82E00E94AF00B2
S1130260089540E0682F82E00E94AF0008950E9444
S1130270200161E080E00E947F01FFCF1F920F9276
S11302800FB60F9211242F933F934F935F936F9365
S11302907F938F939F93AF93BF93EF93FF938FB10C
S11302A080936000809160008C3449F018F48B34A2
S11302B071F014C08B3679F08C3629F00FC080E0D1
S11302C00E942B010BC080E00E94310107C081E035
S11302D00E942B0103C081E00E943101FF91EF9144
S11302E0BF91AF919F918F917F916F915F914F914A
S11302F03F912F910F900FBE0F901F901895CF93A1
S1130300C62F8823F1F0813081F540E065E00E943A
S11303103E0041E066E081E00E943E0040E064E08F
S113032081E00E943E0040E067E081E00E943E00E0
S11303308DB180618DB940E064E081E00E94AF003E
S113034014C041E065E081E00E943E0040E066E0C8
S113035081E00E943E0041E064E081E00E943E00B2
S113036041E067E081E00E943E00C13021F47894CE
S11303708DB180688DB98DB180648DB9CF910895A8
S1070380F894FFCF1B
S9030000FC
