S00E00004D61737465722E73726563AA
S11300000C942A000C9447000C9447000C9447006D
S11300100C9447000C9447000C9447000C94470040
S11300200C9447000C9447000C9447000C94470030
S11300300C9447000C9426020C9447000C9447003F
S11300400C9447000C9447000C9447000C94470010
S11300500C94470011241FBECFE5D8E0DEBFCDBF0E
S113006011E0A0E6B0E0EEE8F6E002C005900D92E3
S1130070A636B107D9F721E0A6E6B1E001C01D928A
S1130080A736B207E1F70E9417020C9445030C94BB
S113009000000E94A20208954423D9F1413009F0DE
S11300A06BC0813091F028F08230D9F0833029F18F
S11300B008952AB381E090E002C0880F991F6A95E1
S11300C0E2F7809582238ABB089527B381E090E00C
S11300D002C0880F991F6A95E2F78095822387BB37
S11300E0089524B381E090E002C0880F991F6A95B7
S11300F0E2F78095822384BB089521B381E090E0E8
S113010002C0880F991F6A95E2F78095822381BB0C
S11301100895813089F028F08230C9F0833011F1DC
S113012008952AB381E090E002C0880F991F6A9570
S1130130E2F7822B8ABB089527B381E090E002C0E6
S1130140880F991F6A95E2F7822B87BB089524B321
S113015081E090E002C0880F991F6A95E2F7822B34
S113016084BB089521B381E090E002C0880F991FF9
S11301706A95E2F7822B81BB0895442319F041303C
S1130180C9F10895813091F028F08230D9F083309C
S113019029F108952BB381E090E002C0880F991FE4
S11301A06A95E2F7809582238BBB089528B381E09A
S11301B090E002C0880F991F6A95E2F78095822328
S11301C088BB089525B381E090E002C0880F991F91
S11301D06A95E2F78095822385BB089522B381E076
S11301E090E002C0880F991F6A95E2F780958223F8
S11301F082BB0895813089F028F08230C9F08330C1
S113020011F108952BB381E090E002C0880F991F8B
S11302106A95E2F7822B8BBB089528B381E090E0C6
S113022002C0880F991F6A95E2F7822B88BB089554
S113023025B381E090E002C0880F991F6A95E2F728
S1130240822B85BB089522B381E090E002C0880F21
S1130250991F6A95E2F7822B82BB0895E199FECF3C
S113026090BD8FBB8CB381608CBB8DB30895E19935
S1130270FECF8DBB70BD6FBB8CB384608CBB8CB365
S113028082608CBB0895CF93C82F40E061E081E089
S11302900E94BD0040E062E081E00E94BD0040E0B9
S11302A063E081E00E94BD008BB39C2F907F8F7030
S11302B0892B8BBB41E063E081E00E94BD008FE9A4
S11302C09FE00197F1F700C0000040E063E081E0A7
S11302D00E94BD0020E1C29FC00111249BB39F7006
S11302E0892B8BBB41E063E081E00E94BD008FE974
S11302F09FE00197F1F700C0000040E063E081E077
S11303000E94BD008FE39FE10197F1F700C0000058
S1130310CF91089540E061E081E00E944C0040E00C
S113032062E081E00E944C0040E063E081E00E94D2
S11303304C0040E064E080E00E944C0040E065E056
S113034080E00E944C0040E066E080E00E944C00A7
S113035040E067E080E00E944C002FEF81EE94E0E3
S1130360215080409040E1F700C0000082E00E94EC
S1130370430183E30E94430182E30E94430188E234
S11303800E9443018CE00E94430181E00E944301EA
S113039086E00E9443010895CF93C82F41E061E0B5
S11303A081E00E94BD0040E062E081E00E94BD0067
S11303B040E063E081E00E94BD008BB39C2F907FFE
S11303C08F70892B8BBB41E063E081E00E94BD000C
S11303D08FE99FE00197F1F700C0000040E063E07F
S11303E081E00E94BD0020E1C29FC00111249BB3A3
S11303F09F70892B8BBB41E063E081E00E94BD00CC
S11304008FE99FE00197F1F700C0000040E063E04E
S113041081E00E94BD008FE39FE10197F1F700C0E6
S11304200000CF91089581E00E944301089580E681
S113043090E00E9449000E948A0160E081E00E94ED
S11304405D028AE690E00E943603FFCF1F920F926E
S11304500FB60F9211242F933F934F935F936F9393
S11304607F938F939F93AF93BF93EF93FF938CB13D
S113047080936601809166010E949E0280916601CC
S113048061E070E00E9437010E94130281E090E075
S11304900E942E010E94CC01FF91EF91BF91AF9178
S11304A09F918F917F916F915F914F913F912F9188
S11304B00F900FBE0F901F901895CF93C62F8823CF
S11304C0F1F0813081F540E065E00E944C0041E0AC
S11304D066E081E00E944C0040E064E081E00E941C
S11304E04C0040E067E081E00E944C008DB18061E7
S11304F08DB940E064E081E00E94BD0014C041E099
S113050065E081E00E944C0040E066E081E00E94EA
S11305104C0041E064E081E00E944C0041E067E06F
S113052081E00E944C00C13021F478948DB1806840
S11305308DB98DB180648DB9CF9108958FB9779BB2
S1130540FECF0895FC0110BC87E689B98081813013
S113055021F030F0823041F00AC08BB182608BB957
S113056080B58F7B80BD03C080B5806480BD88E189
S11305708AB98181823049F0833061F0813071F42D
S11305808AB180688AB9789409C078948AB1806401
S11305908AB904C078948AB180628AB9828182302F
S11305A049F0833061F0813071F48AB180688AB98E
S11305B0789409C08AB180648AB9789404C08AB1F5
S11305C080628AB978948381823049F0833061F003
S11305D0813071F478948AB180688AB909C07894BA
S11305E08AB180648AB904C078948AB180628AB975
S11305F08581823069F018F4813031F017C083307E
S113060059F0843069F012C080B5826880BD0EC094
S113061080B5846880BD0AC080B5866880BD06C088
S113062080B5866880BD8AB184608AB9848181304E
S113063019F480B5886880BD8781823019F08330D1
S113064029F007C080B5806A80BD03C080B5806B87
S113065080BD8681813019F480B5816880BD08959C
S11306605D9BFECF8CB95E9BFECF0895CF93DF9345
S1130670EC0103C00E943003219688818111FACFD6
S11106800E943003DF91CF910895F894FFCFCC
S113068E00010000000300008025092009205745C1
S113069E4C434F4D4520544F20534D415254204806
S11306AE4F4D45200D0A200D0A200920546F20635A
S11306BE6F6E74726F6C20746865206C69676874F1
S11306CE2073656E642074686520636F727265733F
S11306DE706F6E64696E67206368617261637465BE
S11306EE723A200D0A2023274B2720746F2074752D
S11306FE726E206F6E20746865206B697463686512
S113070E6E206C69676874200D0A2023274C2720FD
S113071E746F207475726E206F6E20746865206C11
S113072E6976696E6720726F6F6D200D0A2023271C
S113073E6B2720746F207475726E206F666620743A
S113074E6865206B69746368656E206C696768748C
S113075E200D0A2023276C2720746F207475726E67
S113076E206F666620746865206C6976696E6720F2
S113077E726F6F6D206C69676874200D0A20494E84
S109078E5055543A00002E
S9030000FC
